{
  "_format": "hh-sol-artifact-1",
  "contractName": "IpfsHashStorage",
  "sourceName": "contracts/IpfsHashStorage.sol",
  "abi": [
    {
      "inputs": [],
      "name": "getIPFSHash",
      "outputs": [
        {
          "internalType": "string",
          "name": "",
          "type": "string"
        }
      ],
      "stateMutability": "view",
      "type": "function"
    },
    {
      "inputs": [
        {
          "internalType": "string",
          "name": "_ipfsHash",
          "type": "string"
        }
      ],
      "name": "setIPFSHash",
      "outputs": [],
      "stateMutability": "view",
      "type": "function"
    }
  ],
  "bytecode": "0x6080604052348015600f57600080fd5b506104718061001f6000396000f3fe608060405234801561001057600080fd5b50600436106100365760003560e01c806320b28ade1461003b578063b8a76f5414610059575b600080fd5b610043610075565b6040516100509190610227565b60405180910390f35b610073600480360381019061006e9190610392565b610107565b005b6060600080546100849061040a565b80601f01602080910402602001604051908101604052809291908181526020018280546100b09061040a565b80156100fd5780601f106100d2576101008083540402835291602001916100fd565b820191906000526020600020905b8154815290600101906020018083116100e057829003601f168201915b5050505050905090565b600080546101149061040a565b80601f01602080910402602001604051908101604052809291908181526020018280546101409061040a565b801561018d5780601f106101625761010080835404028352916020019161018d565b820191906000526020600020905b81548152906001019060200180831161017057829003601f168201915b5050505050905050565b600081519050919050565b600082825260208201905092915050565b60005b838110156101d15780820151818401526020810190506101b6565b60008484015250505050565b6000601f19601f8301169050919050565b60006101f982610197565b61020381856101a2565b93506102138185602086016101b3565b61021c816101dd565b840191505092915050565b6000602082019050818103600083015261024181846101ee565b905092915050565b6000604051905090565b600080fd5b600080fd5b600080fd5b600080fd5b7f4e487b7100000000000000000000000000000000000000000000000000000000600052604160045260246000fd5b61029f826101dd565b810181811067ffffffffffffffff821117156102be576102bd610267565b5b80604052505050565b60006102d1610249565b90506102dd8282610296565b919050565b600067ffffffffffffffff8211156102fd576102fc610267565b5b610306826101dd565b9050602081019050919050565b82818337600083830152505050565b6000610335610330846102e2565b6102c7565b90508281526020810184848401111561035157610350610262565b5b61035c848285610313565b509392505050565b600082601f8301126103795761037861025d565b5b8135610389848260208601610322565b91505092915050565b6000602082840312156103a8576103a7610253565b5b600082013567ffffffffffffffff8111156103c6576103c5610258565b5b6103d284828501610364565b91505092915050565b7f4e487b7100000000000000000000000000000000000000000000000000000000600052602260045260246000fd5b6000600282049050600182168061042257607f821691505b602082108103610435576104346103db565b5b5091905056fea264697066735822122094aeda52d8abc7d67b321b19d50e7f2845f06890e6ebdb06ddaa20055b3f319164736f6c63430008190033",
  "linkReferences": {},
  "deployedLinkReferences": {}
}